S00B00004C43442E7372656346
S113000045C0000058C0000056C0000054C00000A5
S113001052C0000050C000004EC000004CC00000A0
S11300204AC0000048C0000046C0000044C00000B0
S113003042C0000040C000003EC000003CC00000C0
S11300403AC0000038C0000036C0000034C00000D0
S113005032C0000030C000002EC000002CC00000E0
S11300602AC0000028C0000026C0000024C00000F0
S113007022C0000020C000001EC000001CC0000000
S11300801AC0000018C0000016C0000011241FBED2
S1130090CFEFD0E1DEBFCDBF11E0A0E0B1E0ECE3F3
S11300A0F2E000E00BBF02C007900D92AC30B10744
S11300B0D9F7B3D0C1C0A4CF1ABA85B38E7F85BB9C
S11300C085B3826085BB85B3846085BB85E08A95F2
S11300D0F1F7000089B395E09A95F1F7000095B324
S11300E09B7F95BB9FEF9ABB95E09A95F1F7000033
S11300F00895882314F481E0089580E0089595B369
S11301009E7F95BB95B39D7F95BB95B3946095BB3E
S11301108BBB85E08A95F1F7000085B38B7F85BBA7
S113012085E08A95F1F700000895CF93C82F04C0A5
S113013085E08A95F1F70000BFDFDBDF8111F8CF9E
S113014085B38E7F85BB85B38D7F85BB85B3846086
S113015085BBCBBB85E08A95F1F7000085B38B7F27
S113016085BB85E08A95F1F70000CF9108952FEFC4
S113017081EE94E0215080409040E1F700C00000FF
S113018088E3BDDF8FE39CE90197F1F700C000002D
S113019088E3B5DF8FE193E00197F1F700C0000039
S11301A088E3ADDF8FE193E00197F1F700C0000031
S11301B088E3BBDF8CE0B9DF81E0B7CF0895CF934C
S11301C0C82F04C085E08A95F1F7000075DF91DF40
S11301D08111F8CF85B3816085BB85B38D7F85BBE5
S11301E085B3846085BBCBBB85E08A95F1F70000BD
S11301F085B38B7F85BB85E08A95F1F70000CF91AD
S11302000895CF93DF93EC0102C02196D8DF888153
S11302108111FBCFDF91CF9108958FEF84BB8ABB0F
S1130220A6DF80E882DF80E091E0EBDF80EC7DDF19
S10F023085E091E0E6DFFFCFF894FFCFFB
S10F023C4D4F4F4E0048656C6C6F210064
S9030000FC
